{
  "contractName": "TextMessage",
  "abi": [
    {
      "anonymous": false,
      "inputs": [
        {
          "indexed": true,
          "internalType": "address",
          "name": "sender",
          "type": "address"
        },
        {
          "indexed": true,
          "internalType": "address",
          "name": "receiver",
          "type": "address"
        },
        {
          "indexed": false,
          "internalType": "string",
          "name": "content",
          "type": "string"
        }
      ],
      "name": "NewText",
      "type": "event"
    },
    {
      "constant": false,
      "inputs": [
        {
          "internalType": "address",
          "name": "_sender",
          "type": "address"
        },
        {
          "internalType": "address",
          "name": "_receiver",
          "type": "address"
        },
        {
          "internalType": "string",
          "name": "_content",
          "type": "string"
        }
      ],
      "name": "sendMessage",
      "outputs": [],
      "payable": false,
      "stateMutability": "nonpayable",
      "type": "function"
    }
  ],
  "bytecode": "0x608060405234801561001057600080fd5b5061022f806100206000396000f3fe608060405234801561001057600080fd5b506004361061002b5760003560e01c8063b88e318d14610030575b600080fd5b6101296004803603606081101561004657600080fd5b81019080803573ffffffffffffffffffffffffffffffffffffffff169060200190929190803573ffffffffffffffffffffffffffffffffffffffff169060200190929190803590602001906401000000008111156100a357600080fd5b8201836020820111156100b557600080fd5b803590602001918460018302840111640100000000831117156100d757600080fd5b91908080601f016020809104026020016040519081016040528093929190818152602001838380828437600081840152601f19601f82011690508083019250505050505050919291929050505061012b565b005b8173ffffffffffffffffffffffffffffffffffffffff168373ffffffffffffffffffffffffffffffffffffffff167f557a44e6cf3ac62570e9f465203c23d3de5a4369ddc93123928f713a82b4720e836040518080602001828103825283818151815260200191508051906020019080838360005b838110156101bb5780820151818401526020810190506101a0565b50505050905090810190601f1680156101e85780820380516001836020036101000a031916815260200191505b509250505060405180910390a350505056fea265627a7a7231582065b8a6947c6a2c3799a30712c217979d7498ad84a7418da608692e901ce0fd3564736f6c63430005100032",
  "source": "pragma solidity >=0.4.21 <0.7.0;\n\ncontract TextMessage {\n    // define event\n\n    event NewText(\n        address indexed sender,\n        address indexed receiver,\n        string content\n    );\n\n    function sendMessage(\n        address _sender,\n        address _receiver,\n        string memory _content\n    ) public {\n        // emit event\n        emit NewText(_sender, _receiver, _content);\n    }\n\n}\n",
  "sourcePath": "/home/caleb/PROJECTS/blockchain-event-demo/contracts/chat.sol",
  "compiler": {
    "name": "solc",
    "version": "0.5.16+commit.9c3226ce.Emscripten.clang"
  },
  "schemaVersion": "3.0.23",
  "updatedAt": "2020-03-09T03:35:04.088Z",
  "devdoc": {
    "methods": {}
  },
  "userdoc": {
    "methods": {}
  }
}