{
  "contractName": "TextMessage",
  "abi": [
    {
      "anonymous": false,
      "inputs": [
        {
          "indexed": false,
          "internalType": "address",
          "name": "sender",
          "type": "address"
        },
        {
          "indexed": false,
          "internalType": "string",
          "name": "content",
          "type": "string"
        }
      ],
      "name": "NewText",
      "type": "event"
    },
    {
      "constant": true,
      "inputs": [],
      "name": "enabled",
      "outputs": [
        {
          "internalType": "bool",
          "name": "",
          "type": "bool"
        }
      ],
      "payable": false,
      "stateMutability": "view",
      "type": "function"
    },
    {
      "constant": false,
      "inputs": [
        {
          "internalType": "address",
          "name": "_sender",
          "type": "address"
        },
        {
          "internalType": "string",
          "name": "_content",
          "type": "string"
        }
      ],
      "name": "sendMessage",
      "outputs": [],
      "payable": false,
      "stateMutability": "nonpayable",
      "type": "function"
    }
  ],
  "bytecode": "0x608060405234801561001057600080fd5b50610254806100206000396000f3fe608060405234801561001057600080fd5b50600436106100365760003560e01c8063238dafe01461003b578063de6f24bb1461005d575b600080fd5b610043610138565b604051808215151515815260200191505060405180910390f35b6101366004803603604081101561007357600080fd5b81019080803573ffffffffffffffffffffffffffffffffffffffff169060200190929190803590602001906401000000008111156100b057600080fd5b8201836020820111156100c257600080fd5b803590602001918460018302840111640100000000831117156100e457600080fd5b91908080601f016020809104026020016040519081016040528093929190818152602001838380828437600081840152601f19601f82011690508083019250505050505050919291929050505061014b565b005b600160009054906101000a900460ff1681565b7f4a484b0f4cdce6d14bc38a52ff587fc6ccc5f09e964b54420a5da002abbf854c8282604051808373ffffffffffffffffffffffffffffffffffffffff1673ffffffffffffffffffffffffffffffffffffffff16815260200180602001828103825283818151815260200191508051906020019080838360005b838110156101e05780820151818401526020810190506101c5565b50505050905090810190601f16801561020d5780820380516001836020036101000a031916815260200191505b50935050505060405180910390a1505056fea265627a7a72315820fdb4511df32950d423a07f33965f8baf8806deae83bc924f93bdec4da9a1d81a64736f6c63430005100032",
  "source": "pragma solidity >=0.4.21 <0.7.0;\n\ncontract TextMessage {\n    uint256 cost;\n    bool public enabled;\n\n    // Stores msg index + sender\n    \n    // mapping(uint256 => address) internal sendersPerIndex;\n    // Stores msg index + msg content\n    // mapping(uint256 => string) internal contentsPerIndex;\n    // Stores all the msg indexes\n    // uint256[] internal msgIndices;\n\n    event NewText(address sender, string content);\n\n    function sendMessage(address _sender, string memory _content) public {\n        // Calculate the next message index\n        // uint256 msgIndex = msgIndices.length;\n\n        // Store the messages\n        // sendersPerIndex[msgIndex] = _sender;\n        // contentsPerIndex[msgIndex] = _content;\n        // msgIndices.push(msgIndex);\n        emit NewText(_sender, _content);\n    }\n\n}\n",
  "sourcePath": "/home/caleb/PROJECTS/blockchain-event-demo/contracts/chat.sol",
  "compiler": {
    "name": "solc",
    "version": "0.5.16+commit.9c3226ce.Emscripten.clang"
  },
  "schemaVersion": "3.0.23",
  "updatedAt": "2020-03-07T21:37:19.981Z",
  "devdoc": {
    "methods": {}
  },
  "userdoc": {
    "methods": {}
  }
}