{
  "contractName": "TextMessage",
  "abi": [
    {
      "constant": true,
      "inputs": [],
      "name": "enabled",
      "outputs": [
        {
          "name": "",
          "type": "bool"
        }
      ],
      "payable": false,
      "stateMutability": "view",
      "type": "function"
    },
    {
      "anonymous": false,
      "inputs": [
        {
          "indexed": false,
          "name": "sender",
          "type": "address"
        },
        {
          "indexed": false,
          "name": "content",
          "type": "string"
        }
      ],
      "name": "NewText",
      "type": "event"
    },
    {
      "constant": false,
      "inputs": [
        {
          "name": "_sender",
          "type": "address"
        },
        {
          "name": "_content",
          "type": "string"
        }
      ],
      "name": "sendMessage",
      "outputs": [],
      "payable": false,
      "stateMutability": "nonpayable",
      "type": "function"
    }
  ],
  "bytecode": "0x608060405234801561001057600080fd5b506103cb806100206000396000f3fe608060405260043610610046576000357c010000000000000000000000000000000000000000000000000000000090048063238dafe01461004b578063de6f24bb1461007a575b600080fd5b34801561005757600080fd5b50610060610162565b604051808215151515815260200191505060405180910390f35b34801561008657600080fd5b506101606004803603604081101561009d57600080fd5b81019080803573ffffffffffffffffffffffffffffffffffffffff169060200190929190803590602001906401000000008111156100da57600080fd5b8201836020820111156100ec57600080fd5b8035906020019184600183028401116401000000008311171561010e57600080fd5b91908080601f016020809104026020016040519081016040528093929190818152602001838380828437600081840152601f19601f820116905080830192505050505050509192919290505050610175565b005b600160009054906101000a900460ff1681565b60006004805490509050826002600083815260200190815260200160002060006101000a81548173ffffffffffffffffffffffffffffffffffffffff021916908373ffffffffffffffffffffffffffffffffffffffff160217905550816003600083815260200190815260200160002090805190602001906101f89291906102fa565b5060048190806001815401808255809150509060018203906000526020600020016000909192909190915055507f4a484b0f4cdce6d14bc38a52ff587fc6ccc5f09e964b54420a5da002abbf854c8383604051808373ffffffffffffffffffffffffffffffffffffffff1673ffffffffffffffffffffffffffffffffffffffff16815260200180602001828103825283818151815260200191508051906020019080838360005b838110156102ba57808201518184015260208101905061029f565b50505050905090810190601f1680156102e75780820380516001836020036101000a031916815260200191505b50935050505060405180910390a1505050565b828054600181600116156101000203166002900490600052602060002090601f016020900481019282601f1061033b57805160ff1916838001178555610369565b82800160010185558215610369579182015b8281111561036857825182559160200191906001019061034d565b5b509050610376919061037a565b5090565b61039c91905b80821115610398576000816000905550600101610380565b5090565b9056fea165627a7a723058200716f6d1b552ac35b23a25f921a63d91b8a1b7e590d2d1d5a6984b6dfdc3160d0029",
  "source": "pragma solidity >=0.4.21 <0.7.0;\n\n// contract Owned {\n//     address public owner;\n\n//     function owned() public {\n//         owner = msg.sender;\n//     }\n\n//     modifier onlyOwner {\n//         if (msg.sender != owner)\n//             revert(\"Message sender is different from its owner\");\n//         _;\n//     }\n\n//     function transferOwnership(address newOwner) public onlyOwner {\n//         owner = newOwner;\n//     }\n// }\n\ncontract TextMessage {\n    uint256 cost;\n    bool public enabled;\n\n    // Stores msg index + sender\n    mapping(uint256 => address) internal sendersPerIndex;\n    // Stores msg index + msg content\n    mapping(uint256 => string) internal contentsPerIndex;\n    // Stores all the msg indexes\n    uint256[] internal msgIndices;\n\n    event NewText(address sender, string content);\n\n    // function sendText(string memory phoneNumber, string memory textBody) public payable {\n    //     if (!enabled) revert(\"\");\n    //     if (msg.value < cost) revert(\"\");\n    //     sendMsg(phoneNumber, textBody);\n    // }\n\n    function sendMessage(address _sender, string memory _content) public {\n        // Calculate the next message index\n        uint256 msgIndex = msgIndices.length;\n\n        // Store the messages\n        sendersPerIndex[msgIndex] = _sender;\n        contentsPerIndex[msgIndex] = _content;\n        msgIndices.push(msgIndex);\n        emit NewText(_sender, _content);\n    }\n\n}\n",
  "sourcePath": "/home/caleb/PROJECTS/blockchain-event-demo/contracts/chat.sol",
  "compiler": {
    "name": "solc",
    "version": "0.5.1+commit.c8a2cb62.Linux.g++"
  },
  "schemaVersion": "3.0.23",
  "updatedAt": "2020-03-07T16:36:33.369Z",
  "devdoc": {
    "methods": {}
  },
  "userdoc": {
    "methods": {}
  }
}